:020000040005F5
:206000000080002085680500A16805002F6405008B6705008B6705008B6705000000000063
:206020000000000000000000000000008B6705008B670500000000008B6705008B67050084
:206040008B6705008B6705008B670500000000008B6705008B6705008B6705008B6705007F
:20606000000000008B6705008B6705008B6705008B6705008B6705008B6705008B6705005F
:206080008B6705008B6705008B6705008B6705008B6705008B6705008B6705008B67050048
:2060A0008B6705008B6705008B6705008B6705008B6705008B6705008B6705008B67050028
:1860C0008B6705008B6705008B67050000000000000000008B670500EC
:2060D8002DE9F04F8BB08046581C022803D200200BB0BDE8F08F14981E460C46B3F5801F37
:2060F80001D90028F3D1B6F5B02F01D90028EED0069238B14A4A404600214FF4807300F096
:2061180011FB06E0464808FB04F14FF4807200F072FB701E0123424F4FF0FF39B0FBF4F113
:2061380001FB1400013082B2C5B2100A002D18BF03EB12200190424608BF4FF4807505956B
:20615800029401EB0800C0B208900898D3B2834263D801984FF0FF3118BF200A51FA80F1A9
:206178000792C0B20A91099003FB04F0002400F580700490501C039009985FFA84FB584524
:2061980048D90A984FF480769A4645465845059808BF0646089883424FF4807018BF064678
:2061B800079880EA08004FF0000820430006069808BF00F10C081FFA88F086420AD9385CCC
:2061D8005FFA89F1484000F0E7FA80EA192908F10108F0E7149830B10A9858450CD10398B2
:2061F8000021C0B20DE004984FF4807200EB0B21384600F000FB09E04FF4807000EB0B2183
:2062180050463A464FF4807300F08CFAA84653460134B1E7DDE9024297E76FEA090057E728
:20623800000300202DE9F04740F21009C4F209091546D9F800200C469107804642BFFD20A9
:20625800C4F20000C9F80C0044F20C0042F22C0AC4F209000021C4F2090A40F2B8170160EC
:20627800C1F20007DAF80000386842F20C0681692720C4F208068847306B4FF6FF71CFF6BB
:20629800FE6108403063B06F20F48070B0673868016B4FF4806088473868016B4FF4816044
:2062B80088473868016B4FF4C060884742F22800C6F2080001210160C6F880413160D9F839
:2062D8000000800705D4681C08BF4FF04045C9F80C50DAF8000000BFF0698007FCD500BF19
:2062F800072000F087F90228FAD1B8F1000F16D144F20004C4F20304386A816820468847A4
:206318000428F9D0012804D1386A0321426820469047D6F8180220F00300C6F81802386852
:20633800806BBDE8F04700472DE9F04144F6AC71C5F200014A6846F2092804469007C4F22F
:20635800080805D40868F02242EA104088F84D0041F20C37C5F200073B684AF242204AF2C0
:206378000002C4F20C00002BC4F20C020ED4D7F8EC6086F0C00682F831600C2606EAD363B6
:20639800C03303704FF40033C2F884304FF0012340F2F016C0F8C231C1F2000610888D680F
:2063B800306801682846884705F04070B0F1807F05D198F8000040F0020088F80000306892
:2063D8002946426820469047D7F800014BF20E02C0F30531C4F20C021170C1054FF01301EB
:2063F80058BF2321402308F80130382101EA901000F56050A2F85C00306881682846884759
:20641800022000F0D3F840F29440C4F2602001210160BDE8F081FEE770B541F21C30C5F272
:206438000000066840F2B014C1F2000400F08EF940F28440C4F2602000250560206C806C84
:20645800804740F28010C4F22830006850B140F28051C4F22031B6F1FF30096818BF304686
:20647800FFF762FF42F28C11C4F208010D6042F24801C4F203010A6840F23913282063F3EB
:206498001B42C4F209000A60016801F44051B1F5805F09D101684FF6EF72CFF6FC421140AD
:2064B80001F50032026001600025C4F224350126EE612068016A1420884742F20000C4F24F
:2064D8000900016841F4E021016044F6B4702E60C5F20000006800F44000B0F5000F06D1D1
:2064F800206C416C43F2BD70C0F2860088470C20C4F2682001680029FCD170BD70B590B087
:2065180002AE0D46002108230446324600F00AF9304600F051F9002843D002AA2046002141
:206538002C2300F0FFF89DF81A00A84239D1079800F077F9A8B39DF81400032831D19DF8A5
:20655800150001282DD19DF81900FC2829D0FF2819D19DF81A00072815D1FE20089B002264
:206578008DF8070010480168002000902046FFF7A7FD049988420AD10DF107022046112125
:20659800012300F077F8099800F075F909E0FC200DF10702112101238DF80700204600F01D
:2065B80069F810B070BD00BF0004002080B546F2000146F6AA0E46F6AE0CC4F20C01C0F2C5
:2065D800050EC0F2050C00BF0B6800BF4A689342FCD1834208BF80BD1EF803201EF8003040
:2065F8009A424FF0FF3338BF01231A441CF802200A60E9E742F24011C4F208010A68496DE1
:20661800C30701D1002106E002F0010301F00401C91818BF0121830744BF02F0020341EA4A
:206638005301400744BF02F0040041EA90010220002918BF0120704710B50C484FF47051DB
:20665800006801EA80200A49086000200721FFF755FF0124E0B22B2804D80021FFF74EFF98
:206678000134F7E700F0D2F8002010BD3024034000040020F8B51C46154601EB403600F0D1
:2066980035F8074628463146224600F0A5F804462FB1054801210068426804489047002C94
:2066B80018BFFF242046F8BDD80100100040034070B50A480A4C84420DD00A4D0A48461BC7
:2066D8004EB1D5E9000110F8012B54F822209047083E0835F4E700BF00BF70BDC468050011
:2066F800C0680500C4680500CC68050070B50B4E0B4C3068816820468847054600060AD035
:206718003068002142682046904730688168204688470028F9D1E8B270BD00BFD8010010AA
:206738000040034070B51C46154601EB403600F08AF8210405D016F8011B013C05F8011B8E
:20675800F7E708B900F08CF8002070BD41F21830C5F2000000684FF20001C0F6FF71084077
:206778004AF20001C0F6B731884208BF704700BFFEE7FEE7074880F3088800BF00BF00F095
:206798007FF808B1FFF794FF0020FFF755FF012000F078F80080002010B5064A08210B064E
:2067B80008BF10BD82EA5003C40708BF430801391846F4E72083B8EDB0B5064907231A4698
:2067D800002B04D48C5C855C531EA542F7D0D00FB0BD00BFA268050080B540F2A813C1F2C7
:2067F80000031B689B69984740F28441C4F2602100220A6080BDB0B538B1431E013922B165
:206818008D5C541E9D542246F9E7B0BD80B500F021F8002000214FF0FF32BDE88040FFF715
:2068380001BD002118B1421E01311040FAE7012088437047D0F80300002218B101F8012B57
:206858000138FAE7704780B500F004F8002818BF012080BD0020EFF3108072B670477047A9
:206878000020EFF3108062B670477047FFF7D4FDFFF780BFFEE7016881F3088840680047AB
:0A6898000120704700BFFEE7FEE795
:1068A20043433236783252310102000302000103BF
:1468B80000000000040100004D680500B868050000030020C5
:00000001FF
